{
  "_format": "hh-sol-artifact-1",
  "contractName": "Voting",
  "sourceName": "contracts/Voting.sol",
  "abi": [
    {
      "inputs": [
        {
          "internalType": "string",
          "name": "_name",
          "type": "string"
        },
        {
          "internalType": "string[]",
          "name": "_candidates",
          "type": "string[]"
        }
      ],
      "name": "createPoll",
      "outputs": [],
      "stateMutability": "nonpayable",
      "type": "function"
    },
    {
      "inputs": [
        {
          "internalType": "uint256",
          "name": "pollId",
          "type": "uint256"
        },
        {
          "internalType": "string",
          "name": "candidate",
          "type": "string"
        }
      ],
      "name": "getResult",
      "outputs": [
        {
          "internalType": "uint256",
          "name": "",
          "type": "uint256"
        }
      ],
      "stateMutability": "view",
      "type": "function"
    },
    {
      "inputs": [],
      "name": "pollCount",
      "outputs": [
        {
          "internalType": "uint256",
          "name": "",
          "type": "uint256"
        }
      ],
      "stateMutability": "view",
      "type": "function"
    },
    {
      "inputs": [
        {
          "internalType": "uint256",
          "name": "",
          "type": "uint256"
        }
      ],
      "name": "polls",
      "outputs": [
        {
          "internalType": "string",
          "name": "name",
          "type": "string"
        },
        {
          "internalType": "bool",
          "name": "active",
          "type": "bool"
        }
      ],
      "stateMutability": "view",
      "type": "function"
    },
    {
      "inputs": [
        {
          "internalType": "uint256",
          "name": "pollId",
          "type": "uint256"
        },
        {
          "internalType": "string",
          "name": "candidate",
          "type": "string"
        }
      ],
      "name": "vote",
      "outputs": [],
      "stateMutability": "nonpayable",
      "type": "function"
    }
  ],
  "bytecode": "0x608060405234801561001057600080fd5b50610f05806100206000396000f3fe608060405234801561001057600080fd5b50600436106100575760003560e01c8063241084751461005c57806366b9e25d146100785780637e3d71c3146100a85780639207891d146100c4578063ac2f0074146100e2575b600080fd5b61007660048036038101906100719190610708565b610113565b005b610092600480360381019061008d9190610708565b6102e2565b60405161009f9190610773565b60405180910390f35b6100c260048036038101906100bd9190610874565b610362565b005b6100cc6103df565b6040516100d99190610773565b60405180910390f35b6100fc60048036038101906100f791906108ec565b6103e5565b60405161010a9291906109b3565b60405180910390f35b6001548210610157576040517f08c379a000000000000000000000000000000000000000000000000000000000815260040161014e90610a2f565b60405180910390fd5b600080600084815260200190815260200160002090508060040160009054906101000a900460ff166101be576040517f08c379a00000000000000000000000000000000000000000000000000000000081526004016101b590610a9b565b60405180910390fd5b8060030160003373ffffffffffffffffffffffffffffffffffffffff1673ffffffffffffffffffffffffffffffffffffffff16815260200190815260200160002060009054906101000a900460ff161561024d576040517f08c379a000000000000000000000000000000000000000000000000000000000815260040161024490610b07565b60405180910390fd5b806002018260405161025f9190610b63565b9081526020016040518091039020600081548092919061027e90610ba9565b919050555060018160030160003373ffffffffffffffffffffffffffffffffffffffff1673ffffffffffffffffffffffffffffffffffffffff16815260200190815260200160002060006101000a81548160ff021916908315150217905550505050565b60006001548310610328576040517f08c379a000000000000000000000000000000000000000000000000000000000815260040161031f90610a2f565b60405180910390fd5b6000808481526020019081526020016000206002018260405161034b9190610b63565b908152602001604051809103902054905092915050565b6000806000600154815260200190815260200160002090508281600001908161038b9190610dfd565b50818160010190805190602001906103a492919061049e565b5060018160040160006101000a81548160ff021916908315150217905550600160008154809291906103d590610ba9565b9190505550505050565b60015481565b600060205280600052604060002060009150905080600001805461040890610c20565b80601f016020809104026020016040519081016040528092919081815260200182805461043490610c20565b80156104815780601f1061045657610100808354040283529160200191610481565b820191906000526020600020905b81548152906001019060200180831161046457829003601f168201915b5050505050908060040160009054906101000a900460ff16905082565b8280548282559060005260206000209081019282156104e6579160200282015b828111156104e55782518290816104d59190610dfd565b50916020019190600101906104be565b5b5090506104f391906104f7565b5090565b5b80821115610517576000818161050e919061051b565b506001016104f8565b5090565b50805461052790610c20565b6000825580601f106105395750610558565b601f016020900490600052602060002090810190610557919061055b565b5b50565b5b8082111561057457600081600090555060010161055c565b5090565b6000604051905090565b600080fd5b600080fd5b6000819050919050565b61059f8161058c565b81146105aa57600080fd5b50565b6000813590506105bc81610596565b92915050565b600080fd5b600080fd5b6000601f19601f8301169050919050565b7f4e487b7100000000000000000000000000000000000000000000000000000000600052604160045260246000fd5b610615826105cc565b810181811067ffffffffffffffff82111715610634576106336105dd565b5b80604052505050565b6000610647610578565b9050610653828261060c565b919050565b600067ffffffffffffffff821115610673576106726105dd565b5b61067c826105cc565b9050602081019050919050565b82818337600083830152505050565b60006106ab6106a684610658565b61063d565b9050828152602081018484840111156106c7576106c66105c7565b5b6106d2848285610689565b509392505050565b600082601f8301126106ef576106ee6105c2565b5b81356106ff848260208601610698565b91505092915050565b6000806040838503121561071f5761071e610582565b5b600061072d858286016105ad565b925050602083013567ffffffffffffffff81111561074e5761074d610587565b5b61075a858286016106da565b9150509250929050565b61076d8161058c565b82525050565b60006020820190506107886000830184610764565b92915050565b600067ffffffffffffffff8211156107a9576107a86105dd565b5b602082029050602081019050919050565b600080fd5b60006107d26107cd8461078e565b61063d565b905080838252602082019050602084028301858111156107f5576107f46107ba565b5b835b8181101561083c57803567ffffffffffffffff81111561081a576108196105c2565b5b80860161082789826106da565b855260208501945050506020810190506107f7565b5050509392505050565b600082601f83011261085b5761085a6105c2565b5b813561086b8482602086016107bf565b91505092915050565b6000806040838503121561088b5761088a610582565b5b600083013567ffffffffffffffff8111156108a9576108a8610587565b5b6108b5858286016106da565b925050602083013567ffffffffffffffff8111156108d6576108d5610587565b5b6108e285828601610846565b9150509250929050565b60006020828403121561090257610901610582565b5b6000610910848285016105ad565b91505092915050565b600081519050919050565b600082825260208201905092915050565b60005b83811015610953578082015181840152602081019050610938565b60008484015250505050565b600061096a82610919565b6109748185610924565b9350610984818560208601610935565b61098d816105cc565b840191505092915050565b60008115159050919050565b6109ad81610998565b82525050565b600060408201905081810360008301526109cd818561095f565b90506109dc60208301846109a4565b9392505050565b7f566f746520706f6c6c20646f6573206e6f742065786973740000000000000000600082015250565b6000610a19601883610924565b9150610a24826109e3565b602082019050919050565b60006020820190508181036000830152610a4881610a0c565b9050919050565b7f566f746520706f6c6c20636c6f73656400000000000000000000000000000000600082015250565b6000610a85601083610924565b9150610a9082610a4f565b602082019050919050565b60006020820190508181036000830152610ab481610a78565b9050919050565b7f596f75206861766520616c726561647420766f74656400000000000000000000600082015250565b6000610af1601683610924565b9150610afc82610abb565b602082019050919050565b60006020820190508181036000830152610b2081610ae4565b9050919050565b600081905092915050565b6000610b3d82610919565b610b478185610b27565b9350610b57818560208601610935565b80840191505092915050565b6000610b6f8284610b32565b915081905092915050565b7f4e487b7100000000000000000000000000000000000000000000000000000000600052601160045260246000fd5b6000610bb48261058c565b91507fffffffffffffffffffffffffffffffffffffffffffffffffffffffffffffffff8203610be657610be5610b7a565b5b600182019050919050565b7f4e487b7100000000000000000000000000000000000000000000000000000000600052602260045260246000fd5b60006002820490506001821680610c3857607f821691505b602082108103610c4b57610c4a610bf1565b5b50919050565b60008190508160005260206000209050919050565b60006020601f8301049050919050565b600082821b905092915050565b600060088302610cb37fffffffffffffffffffffffffffffffffffffffffffffffffffffffffffffffff82610c76565b610cbd8683610c76565b95508019841693508086168417925050509392505050565b6000819050919050565b6000610cfa610cf5610cf08461058c565b610cd5565b61058c565b9050919050565b6000819050919050565b610d1483610cdf565b610d28610d2082610d01565b848454610c83565b825550505050565b600090565b610d3d610d30565b610d48818484610d0b565b505050565b5b81811015610d6c57610d61600082610d35565b600181019050610d4e565b5050565b601f821115610db157610d8281610c51565b610d8b84610c66565b81016020851015610d9a578190505b610dae610da685610c66565b830182610d4d565b50505b505050565b600082821c905092915050565b6000610dd460001984600802610db6565b1980831691505092915050565b6000610ded8383610dc3565b9150826002028217905092915050565b610e0682610919565b67ffffffffffffffff811115610e1f57610e1e6105dd565b5b610e298254610c20565b610e34828285610d70565b600060209050601f831160018114610e675760008415610e55578287015190505b610e5f8582610de1565b865550610ec7565b601f198416610e7586610c51565b60005b82811015610e9d57848901518255600182019150602085019450602081019050610e78565b86831015610eba5784890151610eb6601f891682610dc3565b8355505b6001600288020188555050505b50505050505056fea264697066735822122054bae42714479761ef0dd517f5ad8ea63fc9244647b96ebfe69d1cb8fc7f72eb64736f6c63430008110033",
  "linkReferences": {},
  "deployedLinkReferences": {}
}